:1000000031C04BC03FC349C048C047C046C045C0CF
:1000100044C043C042C041C040C03FC03EC00902CE
:10002000190001010080640904000001FF000000C4
:100030000705810308000A12011001000000088171
:10004000179F0C04010002000116035500530042E3
:1000500000740069006E00790053005000490004EC
:100060000309040011241FBECFE5D1E0DEBFCDBFE0
:1000700010E0A0E6B0E0E4EBF9E002C005900D92DC
:10008000A436B107D9F710E0A4E6B0E001C01D9294
:10009000AB3AB107E1F754D48BC4B2CFAC014C5F9B
:1000A0005F4FFC01A191CF0128E030E0F0E8E0E0F3
:1000B000BF2FBA2309F0C09AB09160000B2E00C088
:1000C0000000000000000A94D1F7C29AB0916000CD
:1000D0000B2E00C00000000000000A94D1F7EE0FC4
:1000E000B199EF5FC098C298F6952150310901F798
:1000F000DB01ED93BD018417950709F0D2CF089578
:1001000080916800909169009C012F5F3F4F309370
:1001100069002093680020916A0027FF02C0880FC1
:10012000991F80FF01C0286020936B00292F26951E
:1001300020936C009695879580936D0064E670E03F
:100140008BE690E0ABCFEF92FF921F93CF93DF93BC
:100150001F92CDB7DEB7182F862FE12EF92E08C0DB
:100160008983CEDF90916700F70191937F018981A8
:100170009E2D911B9817A0F30F90DF91CF911F91A7
:10018000FF90EF900895DF92EF92FF920F931F93ED
:10019000CF93DF93F82EE62EEC0150E6D52E30C03B
:1001A000899180936E00ACDF90916B009D259093B8
:1001B0006B0000E010E01DC064E670E08BE690E0AC
:1001C0006DDF9091670080916E00981308C0809158
:1001D0006F00981721F080917000981311C0209142
:1001E000600030E045E0220F331F4A95E1F7020F2F
:1001F000131F209171003091720002171307E0F273
:100200008C2F8F198E1560F281E0DF91CF911F91B5
:100210000F91FF90EF90DF900895CF93DF93EC0163
:100220002981211106C09093900080938F0088E06F
:100230006AC0EC81F0E0213041F480818883D09362
:100240009000C0938F0081E05EC03A81223011F4AB
:10025000308358C0432F477081E090E001C0880F81
:100260004A95EAF7233021F480959081982304C0C1
:10027000243021F49081982B908344C0253049F498
:1002800030936000B99887B3856287BB88B3887D57
:1002900004C0263021F480E287BB88BB33C02730FE
:1002A00051F4BE01CE010296F9DED0939000C093C6
:1002B0008F0084E028C0283031F430936F008B81A8
:1002C000809370001FC08C819D8190936900809302
:1002D0006800293011F480E211C02B3011F480EA5B
:1002E0000DC08A819B8190937200809371002A30A7
:1002F00011F480E403C02C3029F480EC80936A0070
:100300008FEF01C080E0DF91CF910895DF92EF92EF
:10031000FF920F931F93CF93DF9308E010E0F12C2F
:1003200060E8E62EDE2CDF0CD1BE99D1EC01C4339F
:1003300089E0D8070CF4FD2CE6940150110991F7DF
:100340008F2D815081BF0F2D10E00F5F1F4F10C008
:1003500086D18453994097FF03C091958195910967
:100360008C179D0714F4F1B6EC0181B78F5F81BF44
:1003700081B790E0081719075CF7F1BE61B780E01C
:1003800090E0DF91CF911F910F91FF90EF90DF9060
:1003900001C3CF93C62F2091800024FF07C0209176
:1003A000810038E823272093810003C02AE52093A9
:1003B0008000DC01E2E8F0E08C2F8E0F9D9191939C
:1003C0008E13FCCF6C2F82E890E045D1CC5FC093B8
:1003D0008000CF910895CF93DF9360919100635097
:1003E00067FDA6C080918E00CCE0D0E0C81BD1098B
:1003F000CB56DF4F80918D008D3209F088C0683078
:1004000009F094C083EC809375008AE580936100C5
:10041000109273008881807631F0CE01FEDE8F3F2E
:1004200009F464C06AC09A8110927E0089818111AA
:1004300006C010927F002EE730E082E052C0853087
:1004400019F4909392004AC0863091F58B818130E7
:1004500041F487E390E09093900080938F0082E1D5
:1004600023C0823041F48EE190E09093900080931D
:100470008F0089E119C08330B1F4911108C08FE574
:1004800090E09093900080938F0084E00DC09130B5
:1004900051F0923041F489E490E090939000809381
:1004A0008F0086E101C080E090E49093730025C046
:1004B000883069F0893019F4909394000FC08A3025
:1004C00049F08B3059F48BE48093810007C024E914
:1004D00030E002C02EE730E081E003C02EE730E0DC
:1004E00080E03093900020938F0007C0988197FDA3
:1004F0008E8190E89093730007C09F81911104C092
:100500009E81981708F4892F809362000FC0809114
:10051000730087FF0BC0CE0136DE8F3F21F48EE1E2
:100520008093610003C081111092620010929100CB
:100530008091610084FF56C0809162008F3F09F472
:1005400051C0C82F893008F0C8E08C1B809362002E
:100550008091750098E8892780937500CC2389F1F4
:100560008091730087FF06C06C2F86E790E0EBDD7B
:10057000C82F25C040918F005091900086FF0BC07E
:10058000FA01A6E7B0E08C2F8A0F94919D933196E3
:100590008A13FBCF09C0DA01E6E7F0E08C2F8E0F5B
:1005A0009D9191938E13FCCF2C2F215030E02F5F23
:1005B0003F4F240F351F3093900020938F00C93098
:1005C00058F46C2F86E790E046D0CC5FCC3041F0F9
:1005D0008FEF8093620004C08FEF80936200CEE1C2
:1005E000C093610084E196B3987131F48150D9F7DA
:1005F0001092920010928C00C1E08111C0E08091B5
:1006000074008C1729F0C11101C080DEC093740002
:10061000DF91CF910895AB9A8BB780628BBF8BE44B
:10062000809381008AE5809380000895A82FB92FD8
:1006300080E090E041E050EA609530E009C02D9103
:1006400082279795879510F084279527305EC8F309
:100650006F5FA8F30895EADF8D939D930895A6E058
:1006600088279927AA9569F00197E1F3B499FCCFFF
:10067000B49BFECF81E09927A6B3019611F0A87133
:10068000D9F70895CF93CFB7CF93C395B49BE9F72C
:10069000B49B0BC0B49B09C0B49B07C0B49B05C0FE
:1006A000B49B03C0B49B01C0D5C00F92DF93C0912F
:1006B0008E00DD27CB56DF4F012EB49B03C0DF91A8
:1006C0000F90E6CF2F930F931F934F932FEF4F6F02
:1006D00006B304FB20F95F933F9350E03BE065C015
:1006E00016B30126502954FDC89556B3012704FBC3
:1006F00025F92F7306B3B1F05027102714FB26F904
:1007000006B22230F0F000C016B3012704FB27F92F
:100710000126502906B22430E8F54F77206816B339
:100720000000F6CF50274F7D206206B2102F000048
:1007300000C006B300265029102714FB26F906B284
:10074000E2CF4F7B06B3206400C0DACF01265029E8
:10075000187106B269F14E7F2160012F16B328C0CF
:10076000002650294D7F06B22260102F29C0012695
:1007700050294B7F06B22460012F2DC016B30126ED
:100780005029477F2860000006B22EC04F7E06B376
:10079000206130C0422706B3499300265029102714
:1007A00006B24FEF14FB20F9297F16B379F21871C6
:1007B00059F10126502906B2012704FB21F9237FB4
:1007C00006B371F2002650293150D0F006B210273E
:1007D00014FB22F9277E16B351F201265029012776
:1007E00004FB06B223F92F7C49F2000006B3102760
:1007F00014FB24F90026502906B22F7939F270CF64
:1008000010E21ABF002719C03B503195C31BD040DE
:1008100010E21ABF0881033C09F10B34F9F0209172
:100820008C001981110F1213EDCF4A81441F093634
:1008300051F10D3211F0013E29F7009393003F91E1
:100840005F914F911F910F912F91DF910F90CAB738
:10085000C5FD1BCFCF91CFBFCF91189520919300AD
:10086000222369F310919100112379F534307AF144
:100870003093910020938D0010918E003BE0311B4E
:1008800030938E0024C0009191000130F4F40AE509
:100890004F7049F43091610034FD1AC0009361003B
:1008A000C5E7D0E019C03091800034FD11C000933D
:1008B0008000C1E8D0E010C0052710E000C021C0D2
:1008C000052710E0C89508BB14C03AE501C032ED19
:1008D000032EC0E0D0E032E017B31861C49A08B329
:1008E00017BB58E120E84FEF20FF052708BB2795ED
:1008F00017951C3F28F700004552B0F720FF052749
:10090000279508BB17951C3FB8F629913A9561F7D2
:10091000077E10919200110F08BBC250D04011F019
:1009200010938C0010E21ABF006117B3177E402F9E
:10093000477E54E05A95F1F708BB17BB48BB7FCF01
:1009400080E287BB88BB80E090E01CD08F3F09F03D
:1009500081BFBC9A84E1E2EBF1EF3197F1F700C07F
:1009600000008150C1F7BC982EE088E190E00FB6FE
:10097000F894A89581BD0FBE21BD4DDE7894A89551
:100980002ADDFDCFE199FECF1FBA8EBBE09A9927F1
:100990008DB30895262FE199FECF1CBA1FBA8EBBE6
:1009A0002DBB0FB6F894E29AE19A0FBE0196089516
:0409B000F894FFCFE9
:0409B400325AFF00B4
:00000001FF
